:100000000C9446000C946F000C946F000C946F00DD
:100010000C946F000C946F000C9488010C946F008A
:100020000C946F000C946F000C946F000C945A07A2
:100030000C946F000C946F000C94B9060C946F0034
:100040000C946F000C946F000C946F000C946F0074
:100050000C946F000C946F000C946F000C947C0750
:100060000C946F000C946F000902ED01C101B801FE
:10007000BE0167025C02DC08BC07BC07D908E508C2
:10008000D508EC08E808F008A8087A0811241FBE73
:10009000CFEFD8E0DEBFCDBF14BE0FB6F894A89561
:1000A00080916000886180936000109260000FBEB4
:1000B00011E0A0E0B1E0E6EDFBE102C005900D9299
:1000C000AC30B107D9F721E0ACE0B1E001C01D923E
:1000D000AC37B207E1F70E94BF0A0C94E90D0C940B
:1000E000000082E191E0089581E090E090930D019D
:1000F00080930C010895CF93DF93C2E1D1E019867C
:100100001882CE010E9483099B878A87DF91CF9155
:10011000089580910C0190910D01019709F00895C7
:1001200010920D0110920C0181E10E94360788ECBB
:1001300090E00E94F60280E00C943607089580E07B
:1001400090E008950895DF92EF92FF920F931F932E
:10015000CF93DF93F89414B817B81AB815B818B835
:100160001BB8529A5A9A14BC85E085BD8FEF87BDA3
:1001700082E080936E0010928000109281002FE840
:100180003BE0309389002093880080936F00539860
:10019000239891EA9093B0008093B1001092B4003C
:1001A0001092B3008BE080BF83E080937F0086E0F5
:1001B00080937C0083E880937A0080917A00806449
:1001C00080937A0080917A0086FDFCCF10927C00AB
:1001D00083EA80937A0081E080937B0081E090E065
:1001E0000E947F0D8F3F11F08093660010924501B1
:1001F000C1E0C0931E01C093620110923C011092B5
:10020000760180E990E00E947F0D80933B01809110
:100210003B01887311F0C0933B011092660110926C
:1002200065018FEF90E090936401809363011092D9
:10023000410110924201109243011092440181E069
:100240008093110182E49FE0909375018093740183
:1002500080EB90E00E947F0DC82F81EB90E00E9420
:100260007F0D2C2F30E0382B3093780120937701CD
:1002700085E090E00E947F0D80937B0189E090E013
:100280000E947F0D809367018CE090E00E947F0DBB
:100290008093790184E190E00E947F0D80937A0140
:1002A00056E4E52E51E0F52E0FE111E0C0E2D0E07A
:1002B000CE010E947F0DD82ECE0101960E947F0DA7
:1002C0002D2D30E0322F2227282BF7012193319357
:1002D0007F01CE01C0960E947F0DD82ECE01C1961F
:1002E0000E947F0D2D2D30E0322F2227282BF80180
:1002F000219331938F012296CC33D105C9F678949E
:10030000DF91CF911F910F91FF90EF90DF900895B3
:100310001F920F920FB60F9211248F930FB6F8947D
:10032000A8958091600088618093600010926000C1
:100330000FBE8F910F900FBE0F901F9018953C012C
:10034000EB0110E099249A9484E0C82E96E0A92E3F
:1003500023E8B22E38E1D32E49E2E42EE0911101D8
:10036000F0E0E730F105D0F7EC5CFF4F0C94EA0ABF
:10037000112309F405C1C092110111E0FE01099594
:10038000EDCF80914501811105C1F894A0927C00C8
:10039000B0927A0080917A00806480937A00809194
:1003A0007A0086FDFCCF8091780090917900789456
:1003B0008B3AE2E09E070CF0E6C08938F2E09F0736
:1003C0000CF0EFC0873692400CF4E4C0559A549A72
:1003D0003B9A3A9A3D983C98C1CF559854983B9A8D
:1003E0003A9A3D983C98EFECF7E03197F1F700C06E
:1003F0000000559854983B983A983D983C98FFEFE8
:1004000021EE84E0F15020408040E1F700C0000080
:10041000A5CFF89480B7877F80BF80917A008F77CF
:1004200080937A0014B817B81AB815B818B81BB862
:100430000FB6F894A895D09260000FBEE0926000CD
:100440008091600080648093600083B7817F8460C6
:1004500083BFF89483B7816083BF7894889583B70E
:100460008E7F83BF789410924501529A5A9A809158
:100470007A00806880937A0087E592E00197F1F72F
:1004800000C0000080B7886180BF559A549A3B9A9B
:100490003A9A3D9A3C9AEFE1FEE43197F1F700C0B9
:1004A00000008091450181115BC0559854983B989C
:1004B0003A983D983C9852CF80910F01811125C008
:1004C0001092B3001092B4001092100147CF4899D7
:1004D000ECCF559A54983B983A983D983C988FECBD
:1004E00097E00197F1F700C00000559854983B98A9
:1004F0003A983D983C989FEFE1EEF4E09150E0404F
:10050000F040E1F700C0000029CF90910F018091E9
:100510001001981709F422CF80910F0180931001E8
:1005200080910F01813009F450C080910F01109229
:10053000B3009092B4008230D9F19092B3009092BF
:10054000B4008FE295E70197F1F700C000008091B9
:100550007A01909179019093B3008093B400FECE1C
:10056000559A549A3B983A983D983C98FFEF20E76B
:1005700082E0F15020408040E1F700C0000095CFBC
:10058000F3010995F8CE559854983B9A3A9A3D98BC
:100590003C98E4CE559A549A3B983A983D983C98AA
:1005A000DDCE559854983B983A983D9A3C9AD6CED1
:1005B000EFE2F5E73197F1F700C0000080916701A5
:1005C0001092B3008093B400C9CE9092B300109201
:1005D000B4008FE295E70197F1F700C00000809129
:1005E0007B018093B3001092B400B8CE07C0EFEC4B
:1005F000F7E03197F1F700C0000001970097B9F7D5
:1006000008958093B3006093B40008958FEF8093B2
:10061000B3008093B4008FE090E0EFECF7E0319707
:10062000F1F700C000000197C1F7089580914501DE
:1006300081111EC0F89487E080937C0083E880934A
:100640007A0080917A00806480937A0080917A00A9
:1006500086FDFCCF809178009091790010927C000B
:1006600023EA20937A0021E020937B007894089578
:100670008FEF9FEF08958091450181111EC0F8947E
:1006800088EC80937C0087E880937A0080917A00E0
:10069000806480937A0080917A0086FDFCCF8091FF
:1006A00078009091790010927C0023EA20937A00E0
:1006B00021E020937B00789408958FEF9FEF0895B9
:1006C0000F931F93CF93DF93E0E0F0E080E003EA25
:1006D00011E0D6E0C3E8A1E0B0E060E870E0F89493
:1006E000D0937C00C0937A0090917A0090649093AC
:1006F0007A0090917A0096FDFCCF2091780030919D
:100700007900217090917A00906490937A00909192
:100710007A0096FDFCCF40917800509179001092BC
:100720007C0000937A0010937B007894417024132E
:1007300003C06150710999F6222339F09D010E2EF4
:1007400001C0220F0A94EAF7822B3196E830F105B6
:1007500009F0C3CFDF91CF911F910F910895809140
:100760000001982F990F990F990F892790910E01E9
:1007700021E0290F20930E01282F2295269527701E
:1007800082279695969589278093000108958093F6
:100790000001089580914501811116C0F89486E00A
:1007A00080937C0083E880937A0080917A00806453
:1007B00080937A0080917A0086FDFCCF809178004A
:1007C00090917900789408958FEF9FEF08952F927C
:1007D0003F924F925F926F927F928F929F92AF92D1
:1007E000BF92CF92DF92EF92FF920F931F93CF931E
:1007F000DF9300D000D000D0CDB7DEB71C01DC0104
:1008000012960D90BC91A02DBE83AD83A438E3E079
:10081000BE070CF0CBC080911F01909120018A1778
:100820009B0708F48CC100912101109122010A1745
:100830001B0708F422C200912301109124010A171A
:100840001B0708F428C200912501109126010A1700
:100850001B0708F424C200912701109128010A17F0
:100860001B0708F425C20091290110912A010A17DB
:100870001B0708F4E6C100912B0110912C010A1707
:100880001B0708F41EC200912D0110912E010A17BA
:100890001B0708F41FC200912F01109130010A17A5
:1008A0001B0708F425C200913101109132010A178B
:1008B0001B0708F426C200913301109134010A1776
:1008C0001B0708F422C200913501109136010A1766
:1008D0001B0708F423C200913701109138010A1751
:1008E0001B0708F424C20091390110913A010A173C
:1008F0001B0708F425C280E090E0A0EDB0E48983F6
:100900009A83AB83BC832CE0E22EF12CF701EE0F2F
:10091000FF1FE15EFE4F80819181B801681B790B5A
:1009200080E090E00E94280C9B01AC010E94140B17
:100930006B017C01AD81BE81BD01BB0F880B990BA2
:100940000E942A0C4B015C01B80180E090E00E94FB
:10095000280C2B013C0129813A814B815C81C70124
:10096000B6010E94B60C9B01AC01C301B2010E940A
:10097000130B9B01AC01C501B4010E94130B20E0D5
:1009800030E040E251E40E94B60C0E94F20B8B0171
:10099000C701B6010E94F20BAB01BC01C801BA014C
:1009A0000E94D60A6983ED81FE81CBC0DC01CD9027
:1009B000DC9080914601909147018C159D0508F4CB
:1009C000DFC0BFEFB98300914801109149010C15B8
:1009D0001D0508F456C100914A0110914B010C15F8
:1009E0001D0508F453C100914C0110914D010C15E7
:1009F0001D0508F458C100914E0110914F010C15CE
:100A00001D0508F459C100915001109151010C15B8
:100A10001D0508F4B7C000915201109153010C1547
:100A20001D0508F452C100915401109155010C1597
:100A30001D0508F453C100915601109157010C1582
:100A40001D0508F450C100915801109159010C1571
:100A50001D0508F451C100915A0110915B010C155C
:100A60001D0508F456C100915C0110915D010C1543
:100A70001D0508F457C100915E0110915F010C152E
:100A80001D0508F458C100916001109161010C1519
:100A90001D0508F459C11AE5B981BF3F09F459C1D0
:100AA000ED81FE81BF01FF0F880B990B0E942A0C7C
:100AB0004B015C01F9816F2F70E080E090E00E94B3
:100AC000280C6B017C01A501940160E070E081E6D7
:100AD00094E40E94130B9B01AC01C701B6010E9474
:100AE000B60C6B017C01612F70E080E090E00E9409
:100AF000280C2B013C0120E030E04FE254E4C5011A
:100B0000B4010E94130B9B01AC01C301B2010E940E
:100B1000B60C9B01AC01C701B6010E94140B20E08A
:100B200030E048E453E40E94800B20E030E044E0F1
:100B300052E40E94140B0E94F90B862F08C0198200
:100B4000FD01ED3BF2400CF007C189818F5D2696D7
:100B50000FB6F894DEBF0FBECDBFDF91CF911F91CE
:100B60000F91FF90EF90DF90CF90BF90AF909F904C
:100B70008F907F906F905F904F903F902F9008954F
:100B800081E2E5CFF5E03F2EE5E0F0E0EE0FFF1F5C
:100B9000EC5BFE4F80819181B801681B790B80E08E
:100BA00090E00E94280C9B01AC010E94140B4B01A9
:100BB0005C01B601DD0C880B990B0E942A0C2B01FD
:100BC0003C01B80180E090E00E94280C6B017C01A0
:100BD000632D70E080E090E00E94280C20E030E07F
:100BE00040E05FE30E94B60C20E030E0A9010E94E3
:100BF000140BA50194010E94B60C9B01AC01C70126
:100C0000B6010E94130B9B01AC01C301B2010E940B
:100C1000130B20E030E040E251E40E94B60C0E9449
:100C2000F20B8B01C501B4010E94F20BAB01BC01B8
:100C3000C801BA010E94D60A162F6F3F09F02CCFC7
:100C400084CF65E085E090E07C01F1E0EF1AF108E7
:100C500070E080E090E00E94280C20E030E040E06E
:100C60005FE30E94B60C20E030E0A9010E94140B63
:100C700069837A838B839C8349CE61E081E090E035
:100C8000E3CF33243394E1E0F0E080CF82E0382EEC
:100C9000E2E0F0E07BCF62E082E090E0D5CF63E07D
:100CA00083E090E0D1CFB3E03B2EE3E0F0E06ECF05
:100CB00064E084E090E0C8CFA4E03A2EE4E0F0E005
:100CC00065CF66E086E090E0BFCFE6E03E2EE6E04E
:100CD000F0E05CCF67E087E090E0B6CF77E0372EBA
:100CE000E7E0F0E053CF68E0362EE8E0F0E04ECFEA
:100CF00068E088E090E0A8CF59E0352EE9E0F0E028
:100D000045CF69E089E090E09FCF6AE08AE090E01B
:100D10009BCF4AE0342EEAE0F0E038CF6BE08BE086
:100D200090E092CF3BE0332EEBE0F0E02FCF6CE091
:100D30008CE090E089CF2CE0322EECE0F0E026CF82
:100D40006DE08DE090E080CF9DE0392EEDE0F0E0A9
:100D50001DCF81E2810FFBCED101CD90DC9080913F
:100D60004601909147018C159D0508F02CCE10E0AE
:100D700093CE1F920F920FB60F9211242F933F9391
:100D80004F935F936F937F938F939F93AF93BF9393
:100D9000EF93FF932091650130916601809163018B
:100DA00090916401820F931F909366018093650177
:100DB0008FEF90E090936401809363018FEF87BD84
:100DC0008091410190914201A0914301B091440171
:100DD0000196A11DB11D8093410190934201A09302
:100DE0004301B09344018091450181110FC080916E
:100DF000740190917501209165013091660182170F
:100E0000930720F480911101843089F0FF91EF91D4
:100E1000BF91AF919F918F917F916F915F914F9112
:100E20003F912F910F900FBE0F901F901895E0915A
:100E30000301F09104010995009741F30E943C0AD7
:100E400081110AC00E946F0D9C0133273093640109
:100E50002093630187BDDACFE0910101F091020197
:100E600009951092660110926501D0CF80FF11C0E4
:100E7000559A81FF11C0549A82FF11C03B9A83FF9B
:100E800011C03A9A84FF11C03D9A85FD11C03C986B
:100E90000895559881FDEFCF549882FDEFCF3B9890
:100EA00083FDEFCF3A9884FDEFCF3D9885FFEFCFDC
:100EB0003C9A08951F920F920FB60F9211248F93B0
:100EC0009F9310928100109285001092840081E01F
:100ED00080931E01809362011092450110927C0064
:100EE00093EA90937A0080937B009F918F910F906B
:100EF0000FBE0F901F9018951F920F920FB60F9272
:100F000011242F933F934F935F936F937F938F930E
:100F10009F93AF93BF93CF93DF93EF93FF93209172
:100F200084003091850041E04093450180911E018D
:100F30008823A9F1109285001092840040938100CB
:100F40001092760110921E01809162018823A1F017
:100F500080917A0086FDFCCF809178009091790095
:100F60009093400180933F0181E080937C0093EA5D
:100F700090937A0080937B00FF91EF91DF91CF9166
:100F8000BF91AF919F918F917F916F915F914F91A1
:100F90003F912F910F900FBE0F901F901895C90190
:100FA000875891098437994008F04FC02658310975
:100FB000A4EFB0E00E94F00AAA27BB27883008F40B
:100FC0007BC040931E0180916201811152C08091CB
:100FD0003C01E82FF0E0E859FE4F909176019083B4
:100FE0008F5F80933C018C3039F610928100109213
:100FF0008500109284004093620110924501C091D7
:101000007201D091730188E691E00E948309C817AC
:10101000D90709F0B1CF8091710187FF61C098E7CE
:10102000980F933030F0539823981092B400109298
:10103000B30090E0FC01E058F109EB30F10508F055
:101040009BCFE55CFF4F0C94EA0A1092810010924E
:1010500085001092840040931E014093620110921B
:10106000450110927C0083EA80937A0040937B00D4
:1010700083CF80917A0086FDFCCF8091780090919B
:10108000790090933E0180933D0110927C0083EAA9
:1010900080937A0081E080937B0090917601992380
:1010A000D1F01092810010928500109284008093FC
:1010B00062011092450160CF21E030E0F90102C0E9
:1010C000EE0FFF1F8A95E2F7CF0190917601892BF1
:1010D0008093760151CF1092620110923C014CCF67
:1010E000E0910501F09106016DE371E088E691E081
:1010F000099542CF80916801823009F4DDC008F47F
:10110000BAC0833009F4C6C0843009F0B1C0809100
:101110000F0190916E01833009F4E3C080916D015D
:101120001092100123E020930F0180937901909396
:101130007A0180911101863009F41ECF539A239AC7
:101140001092B4001092B30086E08093110114CF86
:1011500080911101863099F0539A239A1092B4002D
:101160001092B300559854983B983A983D983C9803
:1011700010920F011092100186E08093110181E01E
:1011800090E09C010090680102C0220F331F0A9476
:10119000E2F7809177019091780182239323892B44
:1011A00009F086C010920F01E7CE81E08093110113
:1011B000E3CEE0E0F0E0099580916E008D7F8093B2
:1011C0006E0016BCE0E0F0E7099510921101D4CE54
:1011D00082E080931101D0CE85E080931101CCCEC6
:1011E00080911101833009F4C7CE809111018430C0
:1011F00009F4C2CE539A239A1092B4001092B3000D
:1012000083E080931101B8CE80911101863009F0FE
:10121000B3CE6091770180EB90E00E94870D6091E2
:10122000780181EB90E00E94870D60917B0185E061
:1012300090E00E94870D6091670189E090E00E9434
:10124000870D609179018CE090E00E94870D60919C
:101250007A0184E190E00E94870D539823981092C0
:10126000B4001092B30081E0809311018091680175
:1012700081115FCF81CE882339F28130C9F7809107
:10128000690190916A01909378018093770110929F
:101290000F014FCF80910F01823071F180916C016D
:1012A0001092100192E090930F018093670141CF5B
:1012B00081E080930F0160CE80910F01813051F069
:1012C00080916B011092100191E090930F01809337
:1012D0007B012FCF80916B0190917B018913F2CF1D
:1012E00028CF80917A01981319CF80916D012091B8
:1012F0007901821315CF1DCF80916C019091670108
:101300008913CECF16CFFC0180812FEF3FEF282726
:10131000022E2295207F2025032E322F22952F701A
:101320000226269532272327220F220F220F20255F
:1013300081812827022E2295207F2025032E322FFF
:1013400022952F700226269532272327220F220F5F
:10135000220F202582812827022E2295207F2025FA
:10136000032E322F22952F7002262695322723270F
:10137000220F220F220F202583812827022E22955B
:10138000207F2025032E322F22952F7002262695AE
:1013900032272327220F220F220F2025848128277E
:1013A000022E2295207F2025032E322F22952F708A
:1013B0000226269532272327220F220F220F2025CF
:1013C00085812827022E2295207F2025032E322F6B
:1013D00022952F700226269532272327220F220FCF
:1013E000220F202586812827022E2295207F202566
:1013F000032E322F22952F7002262695322723277F
:10140000220F220F220F202587812827022E2295C6
:10141000207F2025032E322F22952F70022626951D
:1014200032272327220F220F220F202580852827ED
:10143000022E2295207F2025032E322F22952F70F9
:101440000226269532272327220F220F220F20253E
:1014500081852827022E2295207F2025032E322FDA
:1014600022952F700226269532272327220F220F3E
:10147000220F2025C90108950FB6F894A4B1209138
:101480003B012A2B24B921E030913B01203029F087
:10149000000025B1232B25B904C000000000000086
:1014A00000C0000000000000309525B1232325B9BD
:1014B0002EEA2A95F1F72BEE30B735FF0AC0A4B912
:1014C00030913B01309525B1232325B90FBE80E033
:1014D000089500002A9581F721E030913B012030EA
:1014E00029F0000025B1232B25B904C0000000001D
:1014F000000000C0000000000000309525B123234B
:1015000025B9000024E52A95F1F7FC018CE06191F2
:1015100070E0660F771F616072609AE041E050E012
:101520009A0126233723232B30913B01203029F0C9
:10153000000025B1232B25B904C0000000000000E5
:1015400000C0000000000000309525B1232325B91C
:10155000000021E52A95F1F7440F551F9A9501F7F0
:101560008A95A9F620B7206120BFA4B930913B012C
:10157000309525B1232325B90FBE81E008950E943F
:10158000A30081E790E0909304018093030184E736
:1015900090E0909302018093010169E870E08BE78D
:1015A00090E00E949F0180E090E0089597FB072E55
:1015B00016F4009407D077FD09D00E94FF0A07FCBB
:1015C00005D03EF4909581959F4F08957095619553
:1015D0007F4F0895EE0FFF1F0590F491E02D0994C1
:1015E000A29FB001B39FC001A39F700D811D112464
:1015F000911DB29F700D811D1124911D0895AA1B8C
:10160000BB1B51E107C0AA1FBB1FA617B70710F0ED
:10161000A61BB70B881F991F5A95A9F7809590951F
:10162000BC01CD0108955058BB27AA270E942B0B5F
:101630000C947C0C0E946E0C38F00E94750C20F00B
:1016400039F49F3F19F426F40C946B0C0EF4E095DA
:10165000E7FB0C94650CE92F0E948D0C58F3BA1728
:10166000620773078407950720F079F4A6F50C94B8
:10167000AF0C0EF4E0950B2EBA2FA02D0B01B90183
:1016800090010C01CA01A0011124FF27591B99F0F8
:10169000593F50F4503E68F11A16F040A22F232F04
:1016A000342F4427585FF3CF469537952795A79554
:1016B000F0405395C9F77EF41F16BA0B620B730BFB
:1016C000840BBAF09150A1F0FF0FBB1F661F771F6C
:1016D000881FC2F70EC0BA0F621F731F841F48F421
:1016E000879577956795B795F7959E3F08F0B0CFAA
:1016F0009395880F08F09927EE0F97958795089591
:101700000E94940B0C947C0C0E94750C58F00E9463
:101710006E0C40F029F45F3F29F00C94650C5111D8
:101720000C94B00C0C946B0C0E948D0C68F39923F4
:10173000B1F3552391F3951B550BBB27AA276217CD
:101740007307840738F09F5F5F4F220F331F441FDA
:10175000AA1FA9F335D00E2E3AF0E0E832D091500E
:101760005040E695001CCAF72BD0FE2F29D0660FFB
:10177000771F881FBB1F261737074807AB07B0E83E
:1017800009F0BB0B802DBF01FF2793585F4F3AF044
:101790009E3F510578F00C94650C0C94B00C5F3FA3
:1017A000E4F3983ED4F3869577956795B795F795CA
:1017B0009F5FC9F7880F911D9695879597F90895B2
:1017C000E1E0660F771F881FBB1F6217730784074E
:1017D000BA0720F0621B730B840BBA0BEE1F88F75D
:1017E000E09508950E94F90B6894B1110C94B00C27
:1017F00008950E94950C88F09F5798F0B92F99276B
:10180000B751B0F0E1F0660F771F881F991F1AF0EB
:10181000BA95C9F714C0B13091F00E94AF0CB1E095
:1018200008950C94AF0C672F782F8827B85F39F094
:10183000B93FCCF3869577956795B395D9F73EF484
:1018400090958095709561957F4F8F4F9F4F08952C
:10185000E89409C097FB3EF490958095709561954A
:101860007F4F8F4F9F4F9923A9F0F92F96E9BB2700
:101870009395F695879577956795B795F111F8CF7C
:10188000FAF4BB0F11F460FF1BC06F5F7F4F8F4FE7
:101890009F4F16C0882311F096E911C0772321F0DD
:1018A0009EE8872F762F05C0662371F096E8862F75
:1018B00070E060E02AF09A95660F771F881FDAF7CC
:1018C000880F9695879597F9089597F99F6780E80F
:1018D00070E060E008959FEF80EC089500240A9482
:1018E0001616170618060906089500240A941216FB
:1018F0001306140605060895092E0394000C11F42E
:10190000882352F0BB0F40F4BF2B11F460FF04C0DA
:101910006F5F7F4F8F4F9F4F089557FD9058440F33
:10192000551F59F05F3F71F04795880F97FB991F3E
:1019300061F09F3F79F087950895121613061406FB
:10194000551FF2CF4695F1DF08C016161706180688
:10195000991FF1CF86957105610508940895E89463
:10196000BB2766277727CB0197F908950E94C90CFA
:101970000C947C0C0E946E0C38F00E94750C20F0C8
:10198000952311F00C94650C0C946B0C11240C94A1
:10199000B00C0E948D0C70F3959FC1F3950F50E031
:1019A000551F629FF001729FBB27F00DB11D639F11
:1019B000AA27F00DB11DAA1F649F6627B00DA11DB7
:1019C000661F829F2227B00DA11D621F739FB00D5D
:1019D000A11D621F839FA00D611D221F749F3327CD
:1019E000A00D611D231F849F600D211D822F762F66
:1019F0006A2F11249F5750409AF0F1F088234AF043
:101A0000EE0FFF1FBB1F661F771F881F91505040AE
:101A1000A9F79E3F510580F00C94650C0C94B00C16
:101A20005F3FE4F3983ED4F3869577956795B79535
:101A3000F795E7959F5FC1F7FE2B880F911D96954F
:101A4000879597F908958F929F92AF92BF92CF9208
:101A5000DF92EF92FF92CF93DF93EC01688179815F
:101A60008A819B81611571058105910521F464E2EC
:101A700079ED8BE597E02DE133EF41E050E00E94F6
:101A8000950D49015A019B01AC01A7EAB1E40E94FE
:101A9000B40D6B017C01ACEEB4EFA50194010E9482
:101AA000C20DDC01CB018C0D9D1DAE1DBF1DB7FF0E
:101AB00003C00197A109B04888839983AA83BB8397
:101AC0009F77DF91CF91FF90EF90DF90CF90BF9005
:101AD000AF909F908F9008950E94230D089587E006
:101AE00091E00E94230D0895A0E0B0E080930701EB
:101AF00090930801A0930901B0930A010895F99900
:101B0000FECF92BD81BDF89A992780B50895262F02
:101B1000F999FECF1FBA92BD81BD20BD0FB6F894D2
:101B2000FA9AF99A0FBE01960895052E97FB1EF4B6
:101B300000940E94AC0D57FD07D00E94C70D07FC12
:101B400003D04EF40C94AC0D5095409530952195F2
:101B50003F4F4F4F5F4F08959095809570956195D9
:101B60007F4F8F4F9F4F08950E94F00AA59F900DC1
:101B7000B49F900DA49F800D911D11240895B7FF6F
:101B80000C94B40D0E94B40D821B930B0895A1E236
:101B90001A2EAA1BBB1BFD010DC0AA1FBB1FEE1FE7
:101BA000FF1FA217B307E407F50720F0A21BB30B32
:101BB000E40BF50B661F771F881F991F1A9469F7AE
:101BC00060957095809590959B01AC01BD01CF010A
:061BD0000895F894FFCF18
:0C1BD600AAA2009F009E00010000000079
:00000001FF
